:1000F1006D75616C696E686B69656E2E766E004B0D
:0E0101006974203839733532204F62697400FA
:1000B100E4FDFCC3ED9FEC9E5015E4FBFA0BBB0085
:0F00C100010AEB647A4A70F50DBD00010C80E472
:0100D000220D
:1000D100E4FDFCC3ED9FEC9E5015E4FBFA0BBB0065
:0F00E100010AEB647A4A70F50DBD00010C80E452
:0100F00022ED
:0301440012010F96
:10014700D2947F037E001200D1C2947F050200D1B2
:10010F00EF139293EFC313139292EF1313543F1302
:0C011F009291EF131313541F13929022BF
:10015700A907E9C4540FFF120144AF0112010F02AE
:0201670001474E
:10000300E4FF12010F7FC87E001200B1C296C295B1
:10001300C2947F031201441201471201477F021267
:10002300010F1201477F2C1201577F801201577F66
:0E0033000C1201577F061201577F0102015780
:10008F00ED7007EF2480F5088005EF24C0F5087F99
:10009F00037E001200B1AF081201577F017E0002EC
:0200AF0000B19E
:05017D007F01020157A3
:08017500D296120157C2962236
:100041008B088A09890AAB08AA09A90A12012BFFA0
:1000510060143395E0FE1201757401250AF50AE476
:070061003509F50980E022DA
:1000680012000312017DE4FDFF12008F7BFF7A006E
:1000780079F11200417D01E4FF12008F7BFF7A01C4
:07008800790012004180FE27
:0300000002016991
:0C016900787FE4F6D8FD75810A0200687A
:10012B00BB010689828A83E0225002E722BBFE02D2
:09013B00E32289828A83E4932205
:00000001FF
